{
  "contractName": "Clock",
  "abi": [
    {
      "constant": true,
      "inputs": [],
      "name": "getTime",
      "outputs": [
        {
          "name": "",
          "type": "uint256"
        }
      ],
      "payable": false,
      "stateMutability": "view",
      "type": "function"
    },
    {
      "constant": false,
      "inputs": [
        {
          "name": "_time",
          "type": "uint256"
        }
      ],
      "name": "setTime",
      "outputs": [],
      "payable": false,
      "stateMutability": "nonpayable",
      "type": "function"
    }
  ],
  "bytecode": "0x608060405234801561001057600080fd5b5060f18061001f6000396000f3006080604052600436106049576000357c0100000000000000000000000000000000000000000000000000000000900463ffffffff1680633beb26c414604e578063557ed1ba146078575b600080fd5b348015605957600080fd5b5060766004803603810190808035906020019092919050505060a0565b005b348015608357600080fd5b50608a60aa565b6040518082815260200191505060405180910390f35b8060008190555050565b600080600054111560be57600054905060c2565b4290505b905600a165627a7a723058204e1218d8532c5408b6fde8f9361f94175608b9cefa28ebcff077010d777446230029",
  "source": "pragma solidity ^0.4.18;\r\n\r\ncontract Clock\r\n{\r\n    uint private timestamp;\r\n\r\n    function getTime() public view returns(uint)\r\n    {\r\n        if(timestamp > 0)\r\n        {\r\n            return timestamp;\r\n        }\r\n\r\n        return block.timestamp;\r\n    }\r\n\r\n    function setTime(uint _time) public\r\n    {\r\n        timestamp = _time;\r\n    }\r\n\r\n}",
  "sourcePath": "D:\\ETH All\\TestContract01\\contracts\\Clock.sol",
  "compiler": {
    "name": "solc",
    "version": "0.4.24+commit.e67f0147.Emscripten.clang"
  },
  "schemaVersion": "2.0.0",
  "updatedAt": "2018-06-26T04:54:49.905Z"
}