{
  "contractName": "MetaCoin",
  "abi": [
    {
      "constant": true,
      "inputs": [
        {
          "name": "",
          "type": "address"
        }
      ],
      "name": "balances",
      "outputs": [
        {
          "name": "",
          "type": "uint256"
        }
      ],
      "payable": false,
      "stateMutability": "view",
      "type": "function"
    },
    {
      "constant": true,
      "inputs": [],
      "name": "raised",
      "outputs": [
        {
          "name": "",
          "type": "uint256"
        }
      ],
      "payable": false,
      "stateMutability": "view",
      "type": "function"
    },
    {
      "inputs": [
        {
          "name": "_duration",
          "type": "uint256"
        },
        {
          "name": "_clockAddress",
          "type": "address"
        }
      ],
      "payable": false,
      "stateMutability": "nonpayable",
      "type": "constructor"
    },
    {
      "anonymous": false,
      "inputs": [
        {
          "indexed": true,
          "name": "_from",
          "type": "address"
        },
        {
          "indexed": true,
          "name": "_to",
          "type": "address"
        },
        {
          "indexed": false,
          "name": "_value",
          "type": "uint256"
        }
      ],
      "name": "Transfer",
      "type": "event"
    },
    {
      "constant": true,
      "inputs": [],
      "name": "isFinished",
      "outputs": [
        {
          "name": "",
          "type": "bool"
        }
      ],
      "payable": false,
      "stateMutability": "view",
      "type": "function"
    },
    {
      "constant": false,
      "inputs": [
        {
          "name": "receiver",
          "type": "address"
        },
        {
          "name": "amount",
          "type": "uint256"
        }
      ],
      "name": "sendCoin",
      "outputs": [
        {
          "name": "sufficient",
          "type": "bool"
        }
      ],
      "payable": false,
      "stateMutability": "nonpayable",
      "type": "function"
    },
    {
      "constant": true,
      "inputs": [
        {
          "name": "addr",
          "type": "address"
        }
      ],
      "name": "getBalanceInEth",
      "outputs": [
        {
          "name": "",
          "type": "uint256"
        }
      ],
      "payable": false,
      "stateMutability": "view",
      "type": "function"
    },
    {
      "constant": true,
      "inputs": [
        {
          "name": "addr",
          "type": "address"
        }
      ],
      "name": "getBalance",
      "outputs": [
        {
          "name": "",
          "type": "uint256"
        }
      ],
      "payable": false,
      "stateMutability": "view",
      "type": "function"
    },
    {
      "constant": true,
      "inputs": [
        {
          "name": "addr",
          "type": "address"
        }
      ],
      "name": "getBalance1",
      "outputs": [
        {
          "name": "",
          "type": "uint256"
        }
      ],
      "payable": false,
      "stateMutability": "view",
      "type": "function"
    },
    {
      "constant": true,
      "inputs": [
        {
          "name": "a",
          "type": "uint256"
        },
        {
          "name": "b",
          "type": "uint256"
        }
      ],
      "name": "addNumber",
      "outputs": [
        {
          "name": "",
          "type": "uint256"
        }
      ],
      "payable": false,
      "stateMutability": "pure",
      "type": "function"
    },
    {
      "constant": false,
      "inputs": [
        {
          "name": "to",
          "type": "address"
        },
        {
          "name": "_amount",
          "type": "uint256"
        }
      ],
      "name": "depositCoins",
      "outputs": [
        {
          "name": "",
          "type": "uint256"
        }
      ],
      "payable": false,
      "stateMutability": "nonpayable",
      "type": "function"
    },
    {
      "constant": false,
      "inputs": [],
      "name": "donate",
      "outputs": [],
      "payable": true,
      "stateMutability": "payable",
      "type": "function"
    }
  ],
  "bytecode": "0x608060405234801561001057600080fd5b5060405160408061099983398101806040528101908080519060200190929190805190602001909291905050506127106000803273ffffffffffffffffffffffffffffffffffffffff1673ffffffffffffffffffffffffffffffffffffffff1681526020019081526020016000208190555080600260006101000a81548173ffffffffffffffffffffffffffffffffffffffff021916908373ffffffffffffffffffffffffffffffffffffffff16021790555081600260009054906101000a900473ffffffffffffffffffffffffffffffffffffffff1673ffffffffffffffffffffffffffffffffffffffff1663557ed1ba6040518163ffffffff167c0100000000000000000000000000000000000000000000000000000000028152600401602060405180830381600087803b15801561014a57600080fd5b505af115801561015e573d6000803e3d6000fd5b505050506040513d602081101561017457600080fd5b81019080805190602001909291905050500160018190555050506107fc8061019d6000396000f3006080604052600436106100a4576000357c0100000000000000000000000000000000000000000000000000000000900463ffffffff1680630f3d0204146100a957806327e235e3146100f457806335be6b971461014b5780637b352962146101a25780637bd703e8146101d157806390b98a1114610228578063d38c6b591461028d578063ed88c68e146102ee578063f0ea4bfc146102f8578063f8b2cb4f14610323575b600080fd5b3480156100b557600080fd5b506100de600480360381019080803590602001909291908035906020019092919050505061037a565b6040518082815260200191505060405180910390f35b34801561010057600080fd5b50610135600480360381019080803573ffffffffffffffffffffffffffffffffffffffff169060200190929190505050610387565b6040518082815260200191505060405180910390f35b34801561015757600080fd5b5061018c600480360381019080803573ffffffffffffffffffffffffffffffffffffffff16906020019092919050505061039f565b6040518082815260200191505060405180910390f35b3480156101ae57600080fd5b506101b76103e7565b604051808215151515815260200191505060405180910390f35b3480156101dd57600080fd5b50610212600480360381019080803573ffffffffffffffffffffffffffffffffffffffff1690602001909291905050506104b4565b6040518082815260200191505060405180910390f35b34801561023457600080fd5b50610273600480360381019080803573ffffffffffffffffffffffffffffffffffffffff16906020019092919080359060200190929190505050610574565b604051808215151515815260200191505060405180910390f35b34801561029957600080fd5b506102d8600480360381019080803573ffffffffffffffffffffffffffffffffffffffff169060200190929190803590602001909291905050506106cd565b6040518082815260200191505060405180910390f35b6102f6610724565b005b34801561030457600080fd5b5061030d610782565b6040518082815260200191505060405180910390f35b34801561032f57600080fd5b50610364600480360381019080803573ffffffffffffffffffffffffffffffffffffffff169060200190929190505050610788565b6040518082815260200191505060405180910390f35b6000818301905092915050565b60006020528060005260406000206000915090505481565b60008060008373ffffffffffffffffffffffffffffffffffffffff1673ffffffffffffffffffffffffffffffffffffffff168152602001908152602001600020549050919050565b6000600260009054906101000a900473ffffffffffffffffffffffffffffffffffffffff1673ffffffffffffffffffffffffffffffffffffffff1663557ed1ba6040518163ffffffff167c0100000000000000000000000000000000000000000000000000000000028152600401602060405180830381600087803b15801561046f57600080fd5b505af1158015610483573d6000803e3d6000fd5b505050506040513d602081101561049957600080fd5b81019080805190602001909291905050506001541115905090565b600073__ConvertLib____________________________6396e4ee3d6104d984610788565b60026040518363ffffffff167c0100000000000000000000000000000000000000000000000000000000028152600401808381526020018281526020019250505060206040518083038186803b15801561053257600080fd5b505af4158015610546573d6000803e3d6000fd5b505050506040513d602081101561055c57600080fd5b81019080805190602001909291905050509050919050565b6000816000803373ffffffffffffffffffffffffffffffffffffffff1673ffffffffffffffffffffffffffffffffffffffff1681526020019081526020016000205410156105c557600090506106c7565b816000803373ffffffffffffffffffffffffffffffffffffffff1673ffffffffffffffffffffffffffffffffffffffff16815260200190815260200160002060008282540392505081905550816000808573ffffffffffffffffffffffffffffffffffffffff1673ffffffffffffffffffffffffffffffffffffffff168152602001908152602001600020600082825401925050819055508273ffffffffffffffffffffffffffffffffffffffff163373ffffffffffffffffffffffffffffffffffffffff167fddf252ad1be2c89b69c2b068fc378daa952ba7f163c4a11628f55a4df523b3ef846040518082815260200191505060405180910390a3600190505b92915050565b6000816000808573ffffffffffffffffffffffffffffffffffffffff1673ffffffffffffffffffffffffffffffffffffffff1681526020019081526020016000206000828254019250508190555081905092915050565b346000803373ffffffffffffffffffffffffffffffffffffffff1673ffffffffffffffffffffffffffffffffffffffff1681526020019081526020016000206000828254019250508190555034600360008282540192505081905550565b60035481565b60008060008373ffffffffffffffffffffffffffffffffffffffff1673ffffffffffffffffffffffffffffffffffffffff1681526020019081526020016000205490509190505600a165627a7a72305820e5f897051290b6baf63c150baac1011a42fd999b231b10fa083ac181388671e00029",
  "source": "pragma solidity ^0.4.18;\n\nimport \"./ConvertLib.sol\";\nimport \"./Clock.sol\";\n\n// This is just a simple example of a coin-like contract.\n// It is not standards compatible and cannot be expected to talk to other\n// coin/token contracts. If you want to create a standards-compliant\n// token, see: https://github.com/ConsenSys/Tokens. Cheers!\n\ncontract MetaCoin \n{\n\tmapping (address => uint) public balances;\n\n\tuint finishAt;\n\tClock clock;\n\n\tevent Transfer(address indexed _from, address indexed _to, uint256 _value);\n\n\n\tconstructor(uint _duration, address _clockAddress) public \n\t{\n\t\tbalances[tx.origin] = 10000;\n\n\t\tclock = Clock(_clockAddress);\n\t\tfinishAt = clock.getTime() + _duration;\n\t}\n\n\t\n\tfunction isFinished() public view returns(bool)\n\t{\n\t\treturn finishAt <= clock.getTime();\n\t}\n\n\tfunction sendCoin(address receiver, uint amount) public returns(bool sufficient) \n\t{\n\t\tif (balances[msg.sender] < amount)\n\t\t{\n\t\t\treturn false;\n\t\t}\n\t\t\t\n\t\tbalances[msg.sender] -= amount;\n\t\tbalances[receiver] += amount;\n\n\t\temit Transfer(msg.sender, receiver, amount);\n\n\t\treturn true;\n\t}\n\n\tfunction getBalanceInEth(address addr) public view returns(uint)\n\t{\n\t\treturn ConvertLib.convert(getBalance(addr), 2);\n\t}\n\n\tfunction getBalance(address addr) public view returns(uint) \n\t{\n\t\treturn balances[addr];\n\t}\n\n\tfunction getBalance1(address addr) public view returns(uint) \n\t{\n\t\treturn balances[addr];\n\t}\n\n\tfunction addNumber(uint a, uint b) public pure returns(uint)\n\t{\n\t\treturn a + b;\n\t}\n\n\tfunction depositCoins(address to, uint _amount) public returns(uint)\n\t{\n\t\t//balances[tx.origin]  += _amount;\n\t\tbalances[to] += _amount;\n\t\treturn _amount;\n\t}\n\n\tuint public raised;\n\tfunction donate() public payable \n\t{\n\t\tbalances[msg.sender] += msg.value;\n    \traised += msg.value;\n  \t}\t\n}\n",
  "sourcePath": "D:\\ETH All\\TestContract01\\contracts\\MetaCoin.sol",
  "compiler": {
    "name": "solc",
    "version": "0.4.24+commit.e67f0147.Emscripten.clang"
  },
  "schemaVersion": "2.0.0",
  "updatedAt": "2018-06-26T04:54:49.909Z"
}